:100000000C9435000C945D000C945D000C945D0024
:100010000C945D000C945D000C945D000C945D00EC
:100020000C945D000C945D000C945D000C945D00DC
:100030000C945D000C945D000C945D000C945D00CC
:100040000C945D000C945D000C946A010C944401C6
:100050000C945D000C945D000C945D000C945D00AC
:100060000C945D000C945D009C0111241FBECFEF29
:10007000D8E0DEBFCDBF11E0A0E0B1E0E6ECF5E0F6
:1000800002C005900D92AC31B107D9F721E0ACE187
:10009000B1E001C01D92AA3CB207E1F710E0C5E350
:1000A000D0E004C02197FE010E94C402C433D107EE
:1000B000C9F70E94C9010C94E1020C940000CF9290
:1000C000DF92EF92FF920F931F93CF93DF936C0118
:1000D0007A018B01C0E0D0E0CE15DF0589F0D801B0
:1000E0006D918D01D601ED91FC910190F081E02D93
:1000F000C6010995892B11F47E0102C02196ECCF2F
:10010000C701DF91CF911F910F91FF90EF90DF908A
:10011000CF900895FC01918D828D981761F0828DAA
:10012000DF01A80FB11D5D968C91928D9F5F9F732B
:10013000928F90E008958FEF9FEF0895FC01918DCD
:10014000828D981731F0828DE80FF11D858D90E03A
:1001500008958FEF9FEF0895FC01918D228D892FD7
:1001600090E0805C9F4F821B91098F7399270895BF
:10017000FC01848DDF01A80FB11DA35ABF4F2C9144
:10018000848D90E001968F739927848FA689B78913
:100190002C93A089B1898C9180648C93938D848DEC
:1001A000981306C00288F389E02D80818F7D8083BB
:1001B0000895EF92FF920F931F93CF93DF93EC017B
:1001C00081E0888F9B8D8C8D981305C0E889F98913
:1001D000808185FD24C0F62E0B8D10E00F5F1F4F30
:1001E0000F731127E02E8C8DE8120CC00FB607FCA0
:1001F000FACFE889F989808185FFF5CFCE010E9489
:10020000B800F1CF8B8DFE01E80FF11DE35AFF4FCF
:10021000F0820B8FEA89FB898081806207C0EE89BA
:10022000FF896083E889F98980818064808381E027
:1002300090E0DF91CF911F910F91FF90EF90089583
:10024000CF93DF93EC01888D8823C9F0EA89FB897D
:10025000808185FD05C0A889B9898C9186FD0FC074
:100260000FB607FCF5CF808185FFF2CFA889B98949
:100270008C9185FFEDCFCE010E94B800E7CFDF91D2
:10028000CF9108950E94CA021F920F920FB60F924B
:1002900011242F933F934F935F936F937F938F938B
:1002A0009F93AF93BF93EF93FF938DE291E00E94F2
:1002B000B800FF91EF91BF91AF919F918F917F9186
:1002C0006F915F914F913F912F910F900FBE0F90C3
:1002D0001F9018951F920F920FB60F9211242F9313
:1002E0008F939F93EF93FF93E0913D01F0913E0137
:1002F0008081E0914301F091440182FD12C0908120
:10030000809146018F5F8F7320914701821751F0D2
:10031000E0914601F0E0E35DFE4F958F809346014A
:1003200001C08081FF91EF919F918F912F910F904C
:100330000FBE0F901F901895EDE2F1E0138212822C
:1003400088EE93E0A0E0B0E084839583A683B78332
:1003500084E091E09183808385EC90E095878487A9
:1003600084EC90E09787868780EC90E0918B808B7F
:1003700081EC90E0938B828B82EC90E0958B848B68
:1003800086EC90E0978B868B118E128E138E148ED6
:1003900008958F929F92AF92BF92CF92DF92EF9289
:1003A000FF920F931F93CF93DF93CDB7DEB72D97B7
:1003B0000FB6F894DEBF0FBECDBFE0913D01F091C6
:1003C0003E0182E08083E0913901F0913A01108290
:1003D000E0913B01F0913C018FEC8083109245014C
:1003E000E0914101F091420186E08083E0913F017C
:1003F000F0914001808180618083E0913F01F09124
:100400004001808188608083E0913F01F09140014C
:10041000808180688083E0913F01F091400180817C
:100420008F7D808387E0E5E1F1E08E010F5F1F4F54
:10043000D80101900D928A95E1F788E290E09093BF
:100440002C0180932B0160E171E08FE191E00E942B
:10045000DA02FF24F394F0921C016AE171E0C80112
:100460000E94CF0260E171E0C8010E94CF02F092C9
:100470001D0160E171E0C8010E94CF02F0921E01EF
:100480006AE171E0C8010E94CF026AE171E0C8012F
:100490000E94CF0260E171E0C8010E94CF02B80162
:1004A0008FE191E00E94CF0289819E01285F3F4F3A
:1004B0007901813351F46AE171E0C7010E94DA02E7
:1004C00068015801812C912C0DC060E171E0F5CFDD
:1004D000F50181915F01813381F08033A1F0FFEF5D
:1004E0008F1A9F0AF80101900020E9F73197E01B6D
:1004F000F10B8E169F0660F30FC08114910479F3FF
:100500006AE171E005C08114910449F360E171E092
:10051000C7010E94CF02E3CFB7018FE191E00E94B3
:10052000CF0260E171E08FE191E00E94CF02F6011D
:1005300061916F01E0912D01F0912E010190F08108
:10054000E02D8DE291E0099542E050E062E171E03A
:100550008DE291E00E945F00CE14DF0441F780E05D
:1005600090E02D960FB6F894DEBF0FBECDBFDF91A1
:10057000CF911F910F91FF90EF90DF90CF90BF90A0
:10058000AF909F908F900895EE0FFF1F0590F4910C
:10059000E02D099481E090E0F8940C94E102FB01D5
:1005A000DC010D900020E9F7119701900D920020D9
:1005B000E1F70895FB01DC0101900D920020E1F7C5
:0605C0000895F894FFCF3E
:1005C60000000000D9005F00AC008A009E002001F8
:0C05D60031000D0A0031303031313000AE
:107E0000112484B714BE81FFF0D085E080938100F7
:107E100082E08093C00088E18093C10086E0809377
:107E2000C20080E18093C4008EE0C9D0259A86E02C
:107E300020E33CEF91E0309385002093840096BBD3
:107E4000B09BFECF1D9AA8958150A9F7CC24DD24C4
:107E500088248394B5E0AB2EA1E19A2EF3E0BF2EE7
:107E6000A2D0813461F49FD0082FAFD0023811F036
:107E7000013811F484E001C083E08DD089C08234E0
:107E800011F484E103C0853419F485E0A6D080C0E4
:107E9000853579F488D0E82EFF2485D0082F10E0AE
:107EA000102F00270E291F29000F111F8ED06801E7
:107EB0006FC0863521F484E090D080E0DECF843638
:107EC00009F040C070D06FD0082F6DD080E0C81688
:107ED00080E7D80618F4F601B7BEE895C0E0D1E017
:107EE00062D089930C17E1F7F0E0CF16F0E7DF06D8
:107EF00018F0F601B7BEE89568D007B600FCFDCFD4
:107F0000A601A0E0B1E02C9130E011968C91119780
:107F100090E0982F8827822B932B1296FA010C0160
:107F200087BEE89511244E5F5F4FF1E0A038BF0790
:107F300051F7F601A7BEE89507B600FCFDCF97BE46
:107F4000E89526C08437B1F42ED02DD0F82E2BD052
:107F50003CD0F601EF2C8F010F5F1F4F84911BD097
:107F6000EA94F801C1F70894C11CD11CFA94CF0C13
:107F7000D11C0EC0853739F428D08EE10CD085E9AC
:107F80000AD08FE07ACF813511F488E018D01DD067
:107F900080E101D065CF982F8091C00085FFFCCF94
:107FA0009093C60008958091C00087FFFCCF809118
:107FB000C00084FD01C0A8958091C6000895E0E648
:107FC000F0E098E1908380830895EDDF803219F02E
:107FD00088E0F5DFFFCF84E1DECF1F93182FE3DFCA
:107FE0001150E9F7F2DF1F91089580E0E8DFEE27F6
:047FF000FF270994CA
:027FFE00040479
:0400000300007E007B
:00000001FF