:100000000C9434000C943E000C943E000C943E0082
:100010000C943E000C943E000C943E000C943E0068
:100020000C943E000C943E000C943E000C943E0058
:100030000C943E000C943E000C943E000C943E0048
:100040000C943E000C943E000C943E000C943E0038
:100050000C943E000C943E000C943E000C943E0028
:100060000C943E000C943E0011241FBECFEFD8E04C
:10007000DEBFCDBF0E9440000C946E000C940000C7
:10008000259A20982D9A2FEF89EF90E021508040FB
:100090009040E1F700C000002D988FE39CE90197A4
:1000A000F1F700C000002D9A8FE39CE90197F1F76A
:1000B00000C000002D989FEF29EF80E09150204074
:1000C0008040E1F700C000009FEF21EE84E09150F6
:1000D00020408040E1F700C00000D4CFF894FFCF6B
:00000001FF
